10:11:38.266721 IP 192.168.0.7.22 > 192.168.0.4.38859: Flags [P.], seq 770160473:770160513, ack 1962529759, win 362, options [nop,nop,TS val 56203525 ecr 55432305], length 40
	0x0000:  0022 faa7 6990 0030 65c1 b3a8 0800 4500  ."..i..0e.....E.
	0x0010:  005c 2fdc 4000 4006 8964 c0a8 0007 c0a8  .\/.@.@..d......
	0x0020:  0004 0016 97cb 2de7 b759 74f9 d3df 8018  ......-..Yt.....
	0x0030:  016a d68e 0000 0101 080a 0359 9905 034d  .j.........Y...M
	0x0040:  d471 4865 6c6c 6f20 576f 726c 640a 5353  .qHello.World.SS
	0x0050:  485f 342e 3770 3120 4465 6269 616e 2d38  H_4.7p1.Debian-8
	0x0060:  7562 756e 7475 312e 320a                 ubuntu1.2.
